{
  "_format": "hh-sol-artifact-1",
  "contractName": "Reviews",
  "sourceName": "contracts/Reviews.sol",
  "abi": [
    {
      "inputs": [],
      "stateMutability": "nonpayable",
      "type": "constructor"
    },
    {
      "inputs": [
        {
          "internalType": "string",
          "name": "_review",
          "type": "string"
        },
        {
          "internalType": "uint256",
          "name": "_id",
          "type": "uint256"
        }
      ],
      "name": "createReviews",
      "outputs": [],
      "stateMutability": "nonpayable",
      "type": "function"
    },
    {
      "inputs": [
        {
          "internalType": "string",
          "name": "_name",
          "type": "string"
        }
      ],
      "name": "createStore",
      "outputs": [],
      "stateMutability": "nonpayable",
      "type": "function"
    },
    {
      "inputs": [],
      "name": "name",
      "outputs": [
        {
          "internalType": "string",
          "name": "",
          "type": "string"
        }
      ],
      "stateMutability": "view",
      "type": "function"
    },
    {
      "inputs": [
        {
          "internalType": "uint256",
          "name": "",
          "type": "uint256"
        }
      ],
      "name": "reviews",
      "outputs": [
        {
          "internalType": "uint256",
          "name": "id",
          "type": "uint256"
        },
        {
          "internalType": "string",
          "name": "review",
          "type": "string"
        },
        {
          "internalType": "address",
          "name": "owner",
          "type": "address"
        },
        {
          "internalType": "uint256",
          "name": "store",
          "type": "uint256"
        }
      ],
      "stateMutability": "view",
      "type": "function"
    },
    {
      "inputs": [],
      "name": "reviewsCount",
      "outputs": [
        {
          "internalType": "uint256",
          "name": "",
          "type": "uint256"
        }
      ],
      "stateMutability": "view",
      "type": "function"
    },
    {
      "inputs": [],
      "name": "storeCount",
      "outputs": [
        {
          "internalType": "uint256",
          "name": "",
          "type": "uint256"
        }
      ],
      "stateMutability": "view",
      "type": "function"
    },
    {
      "inputs": [
        {
          "internalType": "uint256",
          "name": "",
          "type": "uint256"
        }
      ],
      "name": "stores",
      "outputs": [
        {
          "internalType": "uint256",
          "name": "id",
          "type": "uint256"
        },
        {
          "internalType": "string",
          "name": "name",
          "type": "string"
        }
      ],
      "stateMutability": "view",
      "type": "function"
    }
  ],
  "bytecode": "0x6080604052600060015560006002553480156200001b57600080fd5b506040518060400160405280600f81526020017f7265766965777320776562736974650000000000000000000000000000000000815250600090805190602001906200006992919062000070565b5062000185565b8280546200007e9062000120565b90600052602060002090601f016020900481019282620000a25760008555620000ee565b82601f10620000bd57805160ff1916838001178555620000ee565b82800160010185558215620000ee579182015b82811115620000ed578251825591602001919060010190620000d0565b5b509050620000fd919062000101565b5090565b5b808211156200011c57600081600090555060010162000102565b5090565b600060028204905060018216806200013957607f821691505b6020821081141562000150576200014f62000156565b5b50919050565b7f4e487b7100000000000000000000000000000000000000000000000000000000600052602260045260246000fd5b610d4f80620001956000396000f3fe608060405234801561001057600080fd5b506004361061007d5760003560e01c8063d0e04fe31161005b578063d0e04fe3146100da578063e7fee98f146100f6578063e83ddcea14610114578063e8a59cd8146101475761007d565b806306fdde03146100825780632235326c146100a0578063a1b141d4146100bc575b600080fd5b61008a610178565b6040516100979190610934565b60405180910390f35b6100ba60048036038101906100b591906107f7565b610206565b005b6100c4610451565b6040516100d191906109b6565b60405180910390f35b6100f460048036038101906100ef91906107b6565b610457565b005b6100fe61050c565b60405161010b91906109b6565b60405180910390f35b61012e6004803603810190610129919061084b565b610512565b60405161013e9493929190610a01565b60405180910390f35b610161600480360381019061015c919061084b565b6105ea565b60405161016f9291906109d1565b60405180910390f35b6000805461018590610b3d565b80601f01602080910402602001604051908101604052809291908181526020018280546101b190610b3d565b80156101fe5780601f106101d3576101008083540402835291602001916101fe565b820191906000526020600020905b8154815290600101906020018083116101e157829003601f168201915b505050505081565b6000600360008381526020019081526020016000206040518060400160405290816000820154815260200160018201805461024090610b3d565b80601f016020809104026020016040519081016040528092919081815260200182805461026c90610b3d565b80156102b95780601f1061028e576101008083540402835291602001916102b9565b820191906000526020600020905b81548152906001019060200180831161029c57829003601f168201915b5050505050815250509050600081600001511180156102de5750600154816000015111155b61031d576040517f08c379a000000000000000000000000000000000000000000000000000000000815260040161031490610976565b60405180910390fd5b6000835111610361576040517f08c379a000000000000000000000000000000000000000000000000000000000815260040161035890610956565b60405180910390fd5b60003390506002600081548092919061037990610ba0565b9190505550604051806080016040528060025481526020018581526020018273ffffffffffffffffffffffffffffffffffffffff16815260200183600001518152506004600060025481526020019081526020016000206000820151816000015560208201518160010190805190602001906103f6929190610696565b5060408201518160020160006101000a81548173ffffffffffffffffffffffffffffffffffffffff021916908373ffffffffffffffffffffffffffffffffffffffff1602179055506060820151816003015590505050505050565b60015481565b600081511161049b576040517f08c379a000000000000000000000000000000000000000000000000000000000815260040161049290610996565b60405180910390fd5b600160008154809291906104ae90610ba0565b91905055506040518060400160405280600154815260200182815250600360006001548152602001908152602001600020600082015181600001556020820151816001019080519060200190610505929190610696565b5090505050565b60025481565b600460205280600052604060002060009150905080600001549080600101805461053b90610b3d565b80601f016020809104026020016040519081016040528092919081815260200182805461056790610b3d565b80156105b45780601f10610589576101008083540402835291602001916105b4565b820191906000526020600020905b81548152906001019060200180831161059757829003601f168201915b5050505050908060020160009054906101000a900473ffffffffffffffffffffffffffffffffffffffff16908060030154905084565b600360205280600052604060002060009150905080600001549080600101805461061390610b3d565b80601f016020809104026020016040519081016040528092919081815260200182805461063f90610b3d565b801561068c5780601f106106615761010080835404028352916020019161068c565b820191906000526020600020905b81548152906001019060200180831161066f57829003601f168201915b5050505050905082565b8280546106a290610b3d565b90600052602060002090601f0160209004810192826106c4576000855561070b565b82601f106106dd57805160ff191683800117855561070b565b8280016001018555821561070b579182015b8281111561070a5782518255916020019190600101906106ef565b5b509050610718919061071c565b5090565b5b8082111561073557600081600090555060010161071d565b5090565b600061074c61074784610a72565b610a4d565b90508281526020810184848401111561076457600080fd5b61076f848285610afb565b509392505050565b600082601f83011261078857600080fd5b8135610798848260208601610739565b91505092915050565b6000813590506107b081610d02565b92915050565b6000602082840312156107c857600080fd5b600082013567ffffffffffffffff8111156107e257600080fd5b6107ee84828501610777565b91505092915050565b6000806040838503121561080a57600080fd5b600083013567ffffffffffffffff81111561082457600080fd5b61083085828601610777565b9250506020610841858286016107a1565b9150509250929050565b60006020828403121561085d57600080fd5b600061086b848285016107a1565b91505092915050565b61087d81610abf565b82525050565b600061088e82610aa3565b6108988185610aae565b93506108a8818560208601610b0a565b6108b181610c76565b840191505092915050565b60006108c9601783610aae565b91506108d482610c87565b602082019050919050565b60006108ec600b83610aae565b91506108f782610cb0565b602082019050919050565b600061090f601283610aae565b915061091a82610cd9565b602082019050919050565b61092e81610af1565b82525050565b6000602082019050818103600083015261094e8184610883565b905092915050565b6000602082019050818103600083015261096f816108bc565b9050919050565b6000602082019050818103600083015261098f816108df565b9050919050565b600060208201905081810360008301526109af81610902565b9050919050565b60006020820190506109cb6000830184610925565b92915050565b60006040820190506109e66000830185610925565b81810360208301526109f88184610883565b90509392505050565b6000608082019050610a166000830187610925565b8181036020830152610a288186610883565b9050610a376040830185610874565b610a446060830184610925565b95945050505050565b6000610a57610a68565b9050610a638282610b6f565b919050565b6000604051905090565b600067ffffffffffffffff821115610a8d57610a8c610c47565b5b610a9682610c76565b9050602081019050919050565b600081519050919050565b600082825260208201905092915050565b6000610aca82610ad1565b9050919050565b600073ffffffffffffffffffffffffffffffffffffffff82169050919050565b6000819050919050565b82818337600083830152505050565b60005b83811015610b28578082015181840152602081019050610b0d565b83811115610b37576000848401525b50505050565b60006002820490506001821680610b5557607f821691505b60208210811415610b6957610b68610c18565b5b50919050565b610b7882610c76565b810181811067ffffffffffffffff82111715610b9757610b96610c47565b5b80604052505050565b6000610bab82610af1565b91507fffffffffffffffffffffffffffffffffffffffffffffffffffffffffffffffff821415610bde57610bdd610be9565b5b600182019050919050565b7f4e487b7100000000000000000000000000000000000000000000000000000000600052601160045260246000fd5b7f4e487b7100000000000000000000000000000000000000000000000000000000600052602260045260246000fd5b7f4e487b7100000000000000000000000000000000000000000000000000000000600052604160045260246000fd5b6000601f19601f8301169050919050565b7f726576696577732063616e6e6f7420626520656d707479000000000000000000600082015250565b7f646f65736e7420776f726b000000000000000000000000000000000000000000600082015250565b7f73746f7265206e656564732061206e616d650000000000000000000000000000600082015250565b610d0b81610af1565b8114610d1657600080fd5b5056fea2646970667358221220c5a49d2eeb72130a4d8854f64fc63eab3734e7f936b7921cecd92617688cc6af64736f6c63430008030033",
  "linkReferences": {},
  "deployedLinkReferences": {}
}